:0F088500E4FFEFC394FF7480948050030F80F35F
:010894002241
:03000300020800F0
:0B080000C0E0C0D075D000C006C007EB
:10080B00759000E4FEEEC39404748094805013A2A0
:10081B0093B39293120885A293B392931208850E09
:04082B0080E3D28B09
:09082F00D007D006D0D0D0E03291
:03001300020838A8
:0B083800C0E0C0D075D000C006C007B3
:10084300759000E4FEEEC39405748094805013A267
:1008530092B39292120885A292B392921208850ED5
:0208630080E330
:09086500D007D006D0D0D0E0325B
:10086E00E4F590D2AFD2A8D2AAD288D28AA294B3FB
:07087E00929412088580F638
:030000000208955E
:0C089500787FE4F6D8FD75810702086E3C
:00000001FF
