:03000300020800F0
:0D080000C0E0C0F0C083C082C0D075D00839
:10080D00751806751900C3E5186480F8E51964803C
:0F081D0098500CA294B39294120885051980E7A5
:0B082C00D0D0D082D083D0F0D0E032DA
:03001300020837A9
:0D083700C0E0C0F0C083C082C0D075D010FA
:10084400751A06751B00C3E51A6480F8E51B6480FD
:0F08540098500CA293B39293120885051B80E76E
:0B086300D0D0D082D083D0F0D0E032A3
:100885007FE87E03E4FDFCC3ED9FEC9E50070DBDA4
:0508950000010C80F2DF
:01089A00223B
:10086E00D2AFD2AAD2A8D288C28AE4F590A292B30D
:07087E00929212088580F63A
:0300000002089B58
:0C089B00787FE4F6D8FD75811B02086E22
:00000001FF
