:10088C00023A0000023C0000023E00000240000060
:10089C000242000002440000024600000248000030
:1008AC00020800FE020A0000021A0000021C00FFEF
:1008BC00021E0000022000000222000002240000A0
:1008CC00023600000238000002340000022800004A
:1008DC0002260000020C0000020E000002100000B4
:1008EC0002120000021400000216000002180000A0
:1008FC00022E0000022A0000022C00000230000030
:04090C0002320000B3
:10091100EFFB3395E0FAEB64014A7002F590EB646A
:10092100024A7003759004EB64034A7003759008E2
:10093100EB64044A700375900CEB64054A7003750F
:100941009010EB64064A7003759014EB64074A70CB
:1009510003759018EB64084A700375901CEDFF3322
:1009610095E0FEEF64014E700375B03EEF64024EF8
:10097100700375B03DEF64034E700375B02FEF64E3
:08098100044E700375B01F2243
:1009C100E4FFFEE4FCFD0DBD00010CED64044C7080
:0E09D100F50FBF00010EE4B507E9EEB440E5F6
:0109DF0022F5
:10098900754A01AF4AEF3395E0FED3EF9404EE6464
:1009990080948050227901E9FF3395E0FED3EF94EA
:1009A90008EE64809480500BAD4A1209111209C1F6
:0709B9000980E4054A80CC2F
:0109C0002214
:03000000020800F3
:0C080000787FE4F6D8FD75814A020847B5
:10080C00020989E493A3F8E493A34003F68001F270
:10081C0008DFF48029E493A3F85407240CC8C333ED
:10082C00C4540F4420C8834004F456800146F6DFBC
:10083C00E4800B010204081020408090088CE47EB8
:10084C00019360BCA3FF543F30E509541FFEE493B1
:10085C00A360010ECF54C025E060A840B8E493A378
:10086C00FAE493A3F8E493A3C8C582C8CAC583CAA3
:10087C00F0A3C8C582C8CAC583CADFE9DEE780BE5B
:0109100000E6
:00000001FF
