:10084400E4FFFEE4FDFC0DBD00010CEDF44C70F67C
:0A0854000FBF00010EEFF44E70E933
:01085E002277
:03000300020800F0
:07080000C0E0C0D075D00874
:10080700E4FBFAA292B392921208440BBB00010ACE
:06081700EB64084A70EDDD
:05081D00D0D0D0E03254
:03001300020822BE
:07082200C0E0C0D075D0104A
:10082900E4FBFAA293B392931208440BBB00010AAA
:06083900EB64044A70EDBF
:05083F00D0D0D0E03232
:0A087E00A294B3929412084480F68D
:10085F00E4F59075B0FFD288D2A8D28AD2AAD2AFCF
:03086F0002087EFE
:0300000002087281
:0C087200787FE4F6D8FD75811702085F5E
:00000001FF
