:10080000EFFB3395E0FAEB64014A7002F590EB647C
:10081000024A7003759004EB64034A7003759008F4
:10082000EB64044A700375900CEB64054A70037521
:100830009010EB64064A7003759014EB64074A70DD
:1008400003759018EB64084A700375901CEDFF3334
:1008500095E0FEEF64014E700375B03EEF64024E0A
:10086000700375B03DEF64034E700375B02FEF64F5
:08087000044E700375B01F2255
:1008B000E4FFFEE4FCFD0DBD00010CED64044C7092
:0E08C000F50FBF00010EE4B507E9EEB440E508
:0108CE002207
:10087800750801AF08EF3395E0FED3EF9404EE64FA
:1008880080948050227901E9FF3395E0FED3EF94FC
:1008980008EE64809480500BAD081208001208B06E
:0708A8000980E4050880CC83
:0108AF002226
:030000000208CF24
:0C08CF00787FE4F6D8FD758108020878F7
:00000001FF
